:100000000C9456000C9473000C9473000C947300C1
:100010000C9473000C9473000C9473000C94730094
:100020000C9473000C9473000C9473000C94730084
:100030000C9473000C9473000C9473000C94730074
:100040000C9473000C9473000C9473000C94730064
:100050000C9473000C9473000C9473000C94730054
:100060000C9473000C9473000C9473000C94730044
:100070000C9473000C9473000C9473000C94730034
:100080000C9473000C9473000C9473000C94730024
:100090000C9473000C9473000C9473000C94730014
:1000A0000C9473000C9473000C94730011241FBE05
:1000B000CFEFDAE0DEBFCDBF11E0A0E0B1E0E6EEC9
:1000C000F8E002C005900D92A031B107D9F721E008
:1000D000A0E1B1E001C01D92A131B207E1F70E9499
:1000E000AE010C9471040C9400002FEE89E492E0B0
:1000F000215080409040E1F700C00000519A509894
:100100003E9A3F9A85E090E04698479AE7EAF1E602
:100110003197F1F700C00000469A4798E7EAF1E608
:100120003197F1F700C00000019771F746984798A2
:10013000109210010895249A209A229A219A2398C5
:100140008CB581658CBD8CB58C7F8CBD289A2C9824
:1001500008958EBD0DB407FEFDCF8EB50895CF93E3
:10016000C62F93E09A95F1F70000289893E09A95AE
:10017000F1F70000805E0E94A90083E08A95F1F704
:1001800000008C2F0E94A90093E09A95F1F70000DF
:10019000289ACF91089587EA91E60197F1F700C078
:1001A000000061E081E00E94AF0061E082E00E9417
:1001B000AF0063E083E00E94AF0069E685E00E9443
:1001C000AF006EE086E00E94AF0093E09A95F1F7F1
:1001D0000000289883E08A95F1F700008AE20E94E7
:1001E000A90093E09A95F1F7000081E00E94A90030
:1001F00083E08A95F1F7000082E00E94A90093E075
:100200009A95F1F7000083E00E94A90083E08A95A7
:10021000F1F7000084E00E94A90093E09A95F1F7BD
:10022000000085E00E94A90083E08A95F1F70000B4
:10023000289A93E09A95F1F70000289883E08A9530
:10024000F1F7000080E30E94A90093E09A95F1F78E
:10025000000081E00E94A90083E08A95F1F7000088
:1002600082E00E94A90093E09A95F1F7000083E0F4
:100270000E94A90083E08A95F1F7000084E00E94C3
:10028000A90093E09A95F1F7000085E00E94A9008B
:1002900083E08A95F1F70000289A61E081E10E94ED
:1002A000AF006FE284E00E94AF006EE180E00E9448
:1002B000AF0087EA91E60197F1F700C000000895CA
:1002C00083E08A95F1F70000289883E08A95F1F79A
:1002D000000081EE0E94A90083E08A95F1F70000FA
:1002E000289A83E08A95F1F700000895CF93C82FEC
:1002F0000E946001289883E08A95F1F7000080EA67
:100300000E94A90093E09A95F1F700008C2F0E94BB
:10031000A90083E08A95F1F70000289A95E09A9564
:10032000F1F72C9A86E08A95F1F700C02C9889EFB6
:1003300090E00197F1F700C00000CF910895CF93AE
:10034000DF93EC018881882331F021960E947601A9
:1003500089918111FBCFDF91CF910895CF93DF93E6
:10036000CDB7DEB760970FB6F894DEBF0FBECDBF36
:100370000E9475000E948D020E949B000E94CB008B
:1003800080E50E94BA028DE30E94EE028CE00E949A
:10039000EE020E94E50283EC99E00197F1F700C0BC
:1003A000000080E50E94BA028AE10E94EE0281E527
:1003B0000E94E2020E940003182F0E94E50280E5DD
:1003C0000E94BA028BE10E94EE0281E50E94E202E5
:1003D0000E940003082F0E94E502612F70E0702B3D
:1003E000072E000C880B990B0E94430320E030E09D
:1003F00040E85DE30E94A7030E940B03DC01CB01F0
:100400004AE0BE016F5F7F4F0E943C0480E091E0B4
:100410000E949F01CE0101960E949F0180E50E94EB
:10042000BA028CE10E94EE0281E50E94E2020E9483
:100430000003182F0E94E50280E50E94BA028DE1B8
:100440000E94EE0281E50E94E2020E940003082F52
:100450000E94E502612F70E0702B072E000C880BC4
:10046000990B0E94430320E030E040E85DE30E94E6
:10047000A7030E940B03DC01CB014AE0BE016F5FC2
:100480007F4F0E943C0484E091E00E949F01CE01D6
:1004900001960E949F0180E50E94BA028EE10E94AF
:1004A000EE0281E50E94E2020E940003182F0E94E2
:1004B000E50280E50E94BA028FE10E94EE0281E52A
:1004C0000E94E2020E940003082F0E94E502612FB1
:1004D00070E0702B072E000C880B990B0E944303D1
:1004E00020E030E040E85DE30E94A7030E940B0398
:1004F000DC01CB014AE0BE016F5F7F4F0E943C04EC
:1005000089E091E00E949F01CE0101960E949F0127
:100510008EE091E00E949F0144CF1092B9008CE0E0
:100520008093B800089594EA9093BC00ECEBF0E05F
:1005300090819923ECF79091B900987F983011F051
:100540009031A1F48093BB0084E88093BC00ECEB75
:10055000F0E080818823ECF79091B900987F983182
:1005600039F081E0903429F480E0089581E0089525
:1005700080E00895CF93DF93ECEBF0E024EAA9EB61
:10058000B0E0CBEBD0E034E844E9208390819923BC
:10059000ECF79C91987F983011F09031B1F78883F7
:1005A000308390819923ECF79C91987F903211F0E1
:1005B000983529F44083908194FDFDCFE6CFDF91FB
:1005C000CF9108950E949302089584E98093BC001E
:1005D000ECEBF0E0808184FDFDCF08958093BB00BB
:1005E00084E88093BC00ECEBF0E080818823ECF79A
:1005F0009091B900987F81E0983209F480E00895E5
:1006000084E88093BC00ECEBF0E080818823ECF779
:100610008091BB0008950E9412036894B1110C945C
:10062000A10308950E94860388F09F5798F0B92F80
:100630009927B751B0F0E1F0660F771F881F991F17
:100640001AF0BA95C9F714C0B13091F00E94A00316
:10065000B1E008950C94A003672F782F8827B85F26
:1006600039F0B93FCCF3869577956795B395D9F76F
:100670003EF490958095709561957F4F8F4F9F4F79
:100680000895E89409C097FB3EF490958095709585
:1006900061957F4F8F4F9F4F9923A9F0F92F96E9CE
:1006A000BB279395F695879577956795B795F11143
:1006B000F8CFFAF4BB0F11F460FF1BC06F5F7F4FE0
:1006C0008F4F9F4F16C0882311F096E911C07723F2
:1006D00021F09EE8872F762F05C0662371F096E8FB
:1006E000862F70E060E02AF09A95660F771F881FCA
:1006F000DAF7880F9695879597F9089557FD9058E2
:10070000440F551F59F05F3F71F04795880F97FBD5
:10071000991F61F09F3F79F087950895121613068F
:100720001406551FF2CF4695F1DF08C016161706BE
:100730001806991FF1CF86957105610508940895F3
:10074000E894BB2766277727CB0197F908950E9485
:10075000BA030C942B040E941D0438F00E94240458
:1007600020F0952311F00C9414040C941A04112415
:100770000C94A1030E947E0370F3959FC1F3950F23
:1007800050E0551F629FF001729FBB27F00DB11D15
:10079000639FAA27F00DB11DAA1F649F6627B00DA5
:1007A000A11D661F829F2227B00DA11D621F739F8E
:1007B000B00DA11D621F839FA00D611D221F749F9C
:1007C0003327A00D611D231F849F600D211D822FE3
:1007D000762F6A2F11249F5750409AF0F1F088230A
:1007E0004AF0EE0FFF1FBB1F661F771F881F915037
:1007F0005040A9F79E3F510580F00C9414040C94CE
:10080000A1035F3FE4F3983ED4F38695779567950F
:10081000B795F795E7959F5FC1F7FE2B880F911D60
:100820009695879597F9089597F99F6780E870E006
:1008300060E008959FEF80EC089500240A94161656
:10084000170618060906089500240A9412161306BE
:10085000140605060895092E0394000C11F488234C
:1008600052F0BB0F40F4BF2B11F460FF04C06F5F68
:100870007F4F8F4F9F4F0895BB274A3031F4992304
:1008800022F4BDE2909581959F4F0C944804BB27BC
:10089000FB015527AA27880F991FAA1FA41710F03C
:1008A000A41B83955051B9F7A05DAA3308F0A95D48
:1008B000A193009779F7B111B1931192CB010C94E8
:1008C0006104DC01FC01672F71917723E1F7329716
:1008D00004C07C916D9370836291AE17BF07C8F31B
:0608E0000895F894FFCF1B
:1008E600593A200020523A200020503A20000A00AF
:00000001FF
