:100000000C9456000C9468000C9468000C946800E2
:100010000C9468000C9468000C9468000C946800C0
:100020000C9468000C9468000C9468000C946800B0
:100030000C9468000C9468000C9468000C946800A0
:100040000C9468000C9468000C9468000C94680090
:100050000C9468000C9468000C9468000C94680080
:100060000C9468000C9468000C9468000C94680070
:100070000C9468000C9468000C9468000C94680060
:100080000C9468000C9468000C9468000C94680050
:100090000C9468000C9468000C9468000C94680040
:1000A0000C9468000C9468000C94680011241FBE26
:1000B000CFEFDAE0DEBFCDBF21E0A0E0B1E001C0CC
:1000C0001D92A930B207E1F70E941F010C94BD01F7
:1000D0000C9400002FEF8EE994E221508040904074
:1000E000E1F700C00000519A509810920001089565
:1000F000519A509880E190E09093CD008093CC008D
:10010000E8ECF0E080818D7F8083EAECF0E0808194
:1001100086608083E9ECF0E08081886180830895C7
:10012000E8ECF0E0908195FFFDCF8093CE0008953C
:10013000CF93DF9380E50E946C0181E20E94A001D1
:1001400081E50E9494010E94B201C1E0D1E0888360
:100150000E9490000E94970180E50E946C0180E25D
:100160000E94A00181E50E9494010E94B20189834E
:100170000E9490000E94970180E50E946C0183E23A
:100180000E94A00181E50E9494010E94B2018A832D
:100190000E9490000E94970180E50E946C0182E21B
:1001A0000E94A00181E50E9494010E94B2018B830C
:1001B0000E9490000E94970180E50E946C0185E2F8
:1001C0000E94A00181E50E9494010E94B2018C83EB
:1001D0000E9490000E94970180E50E946C0184E2D9
:1001E0000E94A00181E50E9494010E94B2018D83CA
:1001F0000E9490000E94970180E50E946C0187E2B6
:100200000E94A00181E50E9494010E94B2018E83A8
:100210000E9490000E94970180E50E946C0186E296
:100220000E94A00181E50E9494010E94B2018F8387
:100230000E9490000E949701DF91CF9108950E9443
:100240006A000E943F010E94780080E50E946C01D4
:100250008DE30E94A0018CE00E94A0010E94970102
:100260008FE39CE90197F1F700C000000E9498001D
:100270008FE39CE90197F1F700C00000F7CF1092DF
:10028000B9008CE08093B800089594EA9093BC0084
:10029000ECEBF0E090819923ECF79091B900987F16
:1002A000983011F09031A1F48093BB0084E88093E2
:1002B000BC00ECEBF0E080818823ECF79091B90072
:1002C000987F983139F081E0903429F480E00895E6
:1002D00081E0089580E00895CF93DF93ECEBF0E0A8
:1002E00024EAA9EBB0E0CBEBD0E034E844E920838A
:1002F00090819923ECF79C91987F983011F0903180
:10030000B1F78883308390819923ECF79C91987F93
:10031000903211F0983529F44083908194FDFDCFFF
:10032000E6CFDF91CF9108950E944501089584E9B9
:100330008093BC00ECEBF0E0808184FDFDCF08955C
:100340008093BB0084E88093BC00ECEBF0E08081FC
:100350008823ECF79091B900987F81E0983209F4F6
:1003600080E0089584E88093BC00ECEBF0E08081AD
:0E0370008823ECF78091BB000895F894FFCF2E
:00000001FF
