:100000000C9456000C9473000C9473000C947300C1
:100010000C9473000C9473000C9473000C94C20243
:100020000C9473000C9473000C9473000C94730084
:100030000C9473000C9473000C9473000C94730074
:100040000C9473000C9473000C9473000C94730064
:100050000C9473000C9473000C9473000C94730054
:100060000C9473000C9473000C9473000C94730044
:100070000C9473000C9473000C9473000C94730034
:100080000C9473000C9473000C9473000C94730024
:100090000C9473000C9473000C9473000C94730014
:1000A0000C9473000C9473000C94730011241FBE05
:1000B000CFEFDAE0DEBFCDBF11E0A0E0B1E0E8E9CC
:1000C000F7E002C005900D92AA30B107D9F721E000
:1000D000AAE0B1E001C01D92AB32B207E1F70E9485
:1000E000F7020C94CA030C94000090E080E80FB66D
:1000F000F89480936100909361000FBE519A5098DC
:100100003E9A3F9A85E090E04698479A2FEF30E775
:1001100042E0215030404040E1F700C00000469AE4
:1001200047982FEF30E742E0215030404040E1F760
:1001300000C00000019741F7469847988FE79FE479
:1001400022E1815090402040E1F700C00000089576
:1001500083E390E09093CD008093CC00E8ECF0E056
:1001600080818D7F8083EAECF0E0808186608083EF
:10017000E9ECF0E08081886180830895E8ECF0E0AC
:10018000908195FFFDCF8093CE00089580E50E9479
:100190006E0380E00E94A20381E50E9496030E9404
:1001A000BF03809329010E94990380E50E946E039A
:1001B0008FE30E94A20380E20E94A2030E9499039F
:1001C0002FE78FE492E1215080409040E1F700C09A
:1001D000000080E50E946E038DE30E94A2038CE084
:1001E0000E94A2030E9499032FEF80E792E0215022
:1001F00080409040E1F700C000000895CF93DF9366
:1002000080E50E946E0380E20E94A20381E50E94C5
:1002100096030E94B403CAE0D1E08A830E94B4032B
:100220008B830E94B4038C830E94B4038D830E944D
:10023000B4038E830E94B4038F830E94B403888723
:100240000E94BF0389870E949903DF91CF9108958F
:10025000CF93DF9380E50E946E0388E00E94A203A3
:1002600081E50E9496030E94B403C4E1D1E08A8331
:100270000E94B4038B830E94B4038C830E94B40356
:100280008D830E94B4038E830E94B4038F830E94E7
:10029000B40388870E94B40389870E94B4038A87C5
:1002A0000E94B4038B870E94B4038C870E94B4031E
:1002B0008D870E94B4038E870E94B4038F870E94AB
:1002C000B403888B0E94B403898B0E94B4038A8B89
:1002D0000E94BF038B8B0E949903DF91CF910895F9
:1002E000259A209A229A219A23988CB580658CBDF4
:1002F0008CB581608CBD8CB58D7F8CBD8DB58160DA
:100300008DBD289A2D988FE19EE40197F1F700C0EA
:10031000000008958EBD0DB407FEFDCF8EB5089583
:1003200028980E948A018FEF0E948A01289A0895D6
:10033000CF93C62F2898805E0E948A018C2F0E943E
:100340008A01289ACF910895682F81E10E9498012F
:1003500008950F931F93CF93DF93062F28988AE277
:100360000E948A01002361F0C5E0D1E0015010E055
:100370000A5F1E4F89910E948A01C017D107D1F7E9
:10038000289ADF91CF911F910F9108950F931F939A
:10039000CF93DF93062F289880E30E948A010023E1
:1003A00061F0C0E0D1E0015010E00F5F1E4F899175
:1003B0000E948A01C017D107D1F7289ADF91CF9107
:1003C0001F910F910895289881EE0E948A01289A22
:1003D00008952D9880E00E949001682F6E7F80E044
:1003E0000E94980180E00E949001682F626080E086
:1003F0000E9498010E94E30160E787E00E94980153
:1004000080E00E949001682F606380E00E94980164
:100410008BE291E00197F1F700C000000895289861
:1004200082EE0E948A01289A08952D9880E00E9409
:100430009001682F636080E00E9498010E940F0283
:1004400060E787E00E94980180E00E949001682F99
:10045000606380E00E9498012D9A8BE291E0019701
:10046000F1F700C00000089561E081E00E9498016A
:1004700061E082E00E94980163E083E00E949801BD
:1004800069E685E00E94980166E286E00E94980194
:1004900065E085E091E00E94A90165E080E091E0DF
:1004A0000E94C6018AE00E94A4016FE184E00E94DC
:1004B00098010E9415028FE19EE40197F1F700C0B8
:1004C000000008950F931F93CF93DF93662371F07D
:1004D000EC016150062F10E00F5F1F4F080F191F2E
:1004E00089910E948A01C017D107D1F7DF91CF917E
:1004F0001F910F9108951F93CF93DF93EC01162F57
:100500000E94E301289880EA0E948A01612FCE01AF
:100510000E946202289A2D9A2D98DF91CF911F9107
:10052000089528988FEF0E948A01289A08950E94C2
:100530009102982F907381E009F080E00895EAE637
:10054000F0E080818F7E8083EE9A789408951F93E7
:10055000CF93DF93882391F0182FC0E080E00E94B2
:100560008A01D82F0E94BE00DA3A29F480912A012C
:100570008F5F80932A01CF5F1C13F0CFDF91CF9163
:100580001F9108951F920F920FB60F9211242F936F
:100590003F934F935F936F937F938F939F93AF930B
:1005A000BF93EF93FF93F8942D98289881E60E94CB
:1005B0008A018AE00E94A702289A60E487E00E94EC
:1005C0009801FF91EF91BF91AF919F918F917F9192
:1005D0006F915F914F913F912F910F900FBE0F90B0
:1005E0001F90189560E787E00E94980108950E9487
:1005F00075000E9441030E94A8000E9470010E94A1
:1006000034020E949F020E94C600E4E1F1E081E012
:1006100080838183EAE0F1E08083818310922A0164
:100620000E940F020E94F2022D9A80912A018431C9
:1006300021F080912A018A30C1F70E94E90180915E
:100640002A01843141F40E94280164E184E191E0AF
:100650000E947B0207C00E94FE006AE08AE091E0EF
:100660000E947B020E9497028111FCCF10922A0106
:100670000E9415020E940F020E94F2022D9A7894A5
:10068000D4CF1092B9008CE08093B800089594EA1A
:100690009093BC00ECEBF0E090819923ECF7909103
:1006A000B900987F983011F09031A1F48093BB008D
:1006B00084E88093BC00ECEBF0E080818823ECF7C9
:1006C0009091B900987F983139F081E0903429F405
:1006D00080E0089581E0089580E00895CF93DF934E
:1006E000ECEBF0E024EAA9EBB0E0CBEBD0E034E8AF
:1006F00044E9208390819923ECF79C91987F98306E
:1007000011F09031B1F78883308390819923ECF711
:100710009C91987F903211F0983529F44083908114
:1007200094FDFDCFE6CFDF91CF9108950E9447035E
:10073000089584E98093BC00ECEBF0E0808184FDB7
:10074000FDCF08958093BB0084E88093BC00ECEB60
:10075000F0E080818823ECF79091B900987F81E0E8
:10076000983209F480E0089584EC8093BC00ECEBAF
:10077000F0E080818823ECF78091BB00089584E845
:100780008093BC00ECEBF0E080818823ECF7809153
:08079000BB000895F894FFCFAF
:0A0798001112131415111213141599
:00000001FF
