S0100000546573745F4150502E7372656334
S11300000C9456000C9473000C9473000C947300BD
S11300100C9473000C9473000C9473000C94730090
S11300200C9473000C9473000C9473000C94730080
S11300300C9473000C9473000C9473000C94730070
S11300400C9473000C9473000C9473000C94730060
S11300500C9473000C9473000C9473000C94730050
S11300600C9473000C9473000C9473000C94730040
S11300700C9473000C9473000C9473000C94730030
S11300800C9473000C9473000C9473000C94730020
S11300900C9473000C9473000C9473000C94730010
S11300A00C9473000C9473000C94730011241FBE01
S11300B0CFEFDAE0DEBFCDBF11E0A0E0B1E0EAE0CF
S11300C0F9E002C005900D92AE38B107D9F721E0EE
S11300D0AEE8B1E001C01D92A73DB207E1F70E946E
S11300E07A020C9483040C94000090E080E80FB62C
S11300F0F89480936100909361000FBE519A5098D8
S11301003E9A3F9A85E090E04698479A2FEF30E771
S113011042E0215030404040E1F700C00000469AE0
S113012047982FEF30E742E0215030404040E1F75C
S113013000C00000019741F7469847988FE79FE475
S113014022E1815090402040E1F700C00000089572
S113015083E390E09093CD008093CC00E8ECF0E052
S113016080818D7F8083EAECF0E0808186608083EB
S1130170E9ECF0E08081886180830895E8ECF0E0A8
S1130180908195FFFDCF8093CE000895CF93DF93A8
S1130190EC018881882331F021960E94BE00899168
S11301A08111FBCFDF91CF910895CF9380E50E9419
S11301B0C10280E00E94F50281E50E94E9020E94EA
S11301C01203C82F0E94EC02C03A29F084E091E0A7
S11301D00E94C60007C08AE191E00E94C60080EA3E
S11301E00E94BE0080E50E94C1028FE30E94F502D6
S11301F080E20E94F5020E94EC022FE78FE492E174
S1130200215080409040E1F700C0000080E50E944A
S1130210C1028DE30E94F5028CE00E94F5020E9467
S1130220EC022FEF80E792E0215080409040E1F70C
S113023000C00000CF910895BF92CF92DF92EF9259
S1130240FF920F931F93CF93DF93CDB7DEB7E09761
S11302500FB6F894DEBF0FBECDBF80E50E94C10289
S11302608EE00E94F50281E50E94E9020E940703E4
S1130270D82E0E940703C82E0E940703E82E0E946E
S11302800703182F0E940703082F0E941203B82E99
S11302900E94EC02F12CF12A10E01B298D2D90E034
S11302A04AE0BE016F5F7F4F9C290E944E044AE0E2
S11302B0BE016F5E7F4FC7010E944E044AE0BE013B
S11302C06F5D7F4FC8010E944E048AE591E00E9451
S11302D0C600CE0101960E94C6008FE591E00E94FF
S11302E0C600CE0141960E94C60085E691E00E94B8
S11302F0C600CE0181960E94C6008BE691E00E9462
S1130300C600E0960FB6F894DEBF0FBECDBFDF91F6
S1130310CF911F910F91FF90EF90DF90CF90BF90FE
S113032008958F929F92AF92BF92CF92DF92EF92F5
S1130330FF920F931F93CF93DF9380E50E94C10236
S11303408AE10E94F50281E50E94E9020E94070306
S11303508093A0010E9407038093C9010E940703B0
S11303608093A5010E9407038093CC010E94070398
S11303708093CB010E9412038093CA010E94EC0275
S11303806091C90170E0762F66278091A001682BE7
S113039070939F0160939E010091CC0110E0102F97
S11303A000278091A501082B1093A7010093A601B3
S11303B0C091CA01D0E0DC2FCC278091CB01C82B9F
S11303C0D093D601C093D501C0900001D090010113
S11303D0E0900201F0900301072E000C880B990BAA
S11303E00E945503A70196010E94B9034B015C01C9
S11303F06093CD017093CE018093CF019093D0018F
S1130400B801110F880B990B0E945503A70196019F
S11304100E94B9036093A1017093A2018093A30188
S11304209093A401BE01DD0F880B990B0E94550324
S1130430A70196010E94B9036093D1017093D20180
S11304408093D3019093D401C501B4010E941D038C
S1130450DC01CB014AE069EA71E00E944E0460913C
S1130460A1017091A2018091A3019091A4010E9425
S11304701D03DC01CB014AE069EB71E00E944E04EC
S11304806091D1017091D2018091D3019091D401F6
S11304900E941D03DC01CB014AE06EE871E00E947A
S11304A04E048EE691E00E94C60089EA91E00E9423
S11304B0C60083E791E00E94C60089EB91E00E94A8
S11304C0C60089E791E00E94C6008EE891E00E9490
S11304D0C60088E191E00E94C600DF91CF911F9190
S11304E00F91FF90EF90DF90CF90BF90AF909F90CF
S11304F08F9008950E9475000E94A8000E949402A3
S11305000E94D5008FE791E00E94C6000E941C0162
S11305100E9491012FEF84E39CE0215080409040A1
S1130520E1F700C00000F2CF1092B90082E080939E
S1130530B800089594EA9093BC00ECEBF0E090814D
S11305409923ECF79091B900987F983011F090318D
S1130550A1F48093BB0084E88093BC00ECEBF0E052
S113056080818823ECF79091B900987F983139F015
S113057081E0903429F480E0089581E0089580E0DA
S11305800895CF93DF93ECEBF0E024EAA9EBB0E01D
S1130590CBEBD0E034E844E9208390819923ECF755
S11305A09C91987F983011F09031B1F78883308313
S11305B090819923ECF79C91987F903211F09835B3
S11305C029F44083908194FDFDCFE6CFDF91CF9154
S11305D008950E949A02089584E98093BC00ECEB8C
S11305E0F0E0808184FDFDCF08958093BB0084E812
S11305F08093BC00ECEBF0E080818823ECF79091D1
S1130600B900987F81E0983209F480E0089584EC81
S11306108093BC00ECEBF0E080818823ECF78091C0
S1130620BB00089584E88093BC00ECEBF0E080818B
S11306308823ECF78091BB0008950E9424036894FA
S1130640B1110C94B30308950E94980388F09F5746
S113065098F0B92F9927B751B0F0E1F0660F771FE2
S1130660881F991F1AF0BA95C9F714C0B13091F0D8
S11306700E94B203B1E008950C94B203672F782F5F
S11306808827B85F39F0B93FCCF38695779567959D
S1130690B395D9F73EF490958095709561957F4F09
S11306A08F4F9F4F0895E89409C097FB3EF49095AF
S11306B08095709561957F4F8F4F9F4F9923A9F037
S11306C0F92F96E9BB279395F695879577956795C6
S11306D0B795F111F8CFFAF4BB0F11F460FF1BC00A
S11306E06F5F7F4F8F4F9F4F16C0882311F096E99D
S11306F011C0772321F09EE8872F762F05C066234B
S113070071F096E8862F70E060E02AF09A95660F03
S1130710771F881FDAF7880F9695879597F90895BC
S113072057FD9058440F551F59F05F3F71F047959E
S1130730880F97FB991F61F09F3F79F08795089583
S1130740121613061406551FF2CF4695F1DF08C0A2
S1130750161617061806991FF1CF869571056105BF
S113076008940895E894BB2766277727CB0197F967
S113077008950E94CC030C943D040E942F0438F089
S11307800E94360420F0952311F00C9426040C9456
S11307902C0411240C94B3030E94900370F3959FCE
S11307A0C1F3950F50E0551F629FF001729FBB2764
S11307B0F00DB11D639FAA27F00DB11DAA1F649F00
S11307C06627B00DA11D661F829F2227B00DA11DB3
S11307D0621F739FB00DA11D621F839FA00D611D39
S11307E0221F749F3327A00D611D231F849F600D5A
S11307F0211D822F762F6A2F11249F5750409AF083
S1130800F1F088234AF0EE0FFF1FBB1F661F771F0E
S1130810881F91505040A9F79E3F510580F00C94D9
S113082026040C94B3035F3FE4F3983ED4F3869517
S113083077956795B795F795E7959F5FC1F7FE2B79
S1130840880F911D9695879597F9089597F99F6755
S113085080E870E060E008959FEF80EC0895002444
S11308600A941616170618060906089500240A9411
S113087012161306140605060895092E0394000C97
S113088011F4882352F0BB0F40F4BF2B11F460FF26
S113089004C06F5F7F4F8F4F9F4F0895BB274A302F
S11308A031F4992322F4BDE2909581959F4F0C94E5
S11308B05A04BB27FB015527AA27880F991FAA1F93
S11308C0A41710F0A41B83955051B9F7A05DAA3367
S11308D008F0A95DA193009779F7B111B193119232
S11308E0CB010C947304DC01FC01672F7191772315
S11308F0E1F7329704C07C916D9370836291AE17D7
S10D0900BF07C8F30895F894FFCF71
S113090A0000803D424E4F303535206E6F742064AE
S113091A65746563746564210A00424E4F30353547
S113092A207375636365737366756C6C7920636F82
S113093A6E6E65637465640A005B43414C49425DAB
S113094A20005359533A20004759523A2000414350
S113095A433A20004D41473A20004D583A2000209E
S113096A4D593A2000204D5A3A200020200045488B
S113097A3A20002045523A20002045503A200048A7
S111098A656C6C6F2C20776F726C64210A0010
S9030000FC
