S0140000426173655F53746174696F6E2E7372656354
S11300000C9456000C9473000C9473000C947300BD
S11300100C9473000C9473000C9473000C94730090
S11300200C9473000C9473000C9473000C94730080
S11300300C9473000C9473000C9473000C94730070
S11300400C9473000C9473000C9473000C94730060
S11300500C9473000C9473000C9473000C94730050
S11300600C9473000C9473000C9473000C94730040
S11300700C9473000C9473000C9473000C94730030
S11300800C9473000C9473000C9473000C94730020
S11300900C9473000C9473000C9473000C94730010
S11300A00C9473000C9473000C94730011241FBE01
S11300B0CFEFDAE0DEBFCDBF11E0A0E0B1E0EEE3C8
S11300C0F5E002C005900D92A830B107D9F721E000
S11300D0A8E0B1E001C01D92A031B207E1F70E948F
S11300E06C020C949D020C9400002FEF8EE994E2B4
S11300F0215080409040E1F700C00000519A509890
S11301000895519A509880E190E09093CD008093A7
S1130110CC00E8ECF0E080818D7F8083EAECF0E0B5
S1130120808186608083E9ECF0E08081886180834F
S11301300895E8ECF0E0908195FFFDCF8093CE0028
S11301400895249A209A229A219A23988CB581653D
S11301508CBD8CB58C7F8CBD289A2C9808958EBD4F
S11301600DB407FEFDCF8EB5089595E39A95F1F78A
S11301700000289895E39A95F1F700000E94AF00DB
S113018085E38A95F1F700008FEF0E94AF0095E3B5
S11301909A95F1F70000289A0895CF93C62F95E316
S11301A09A95F1F70000289895E39A95F1F70000E5
S11301B0805E0E94AF0085E38A95F1F700008C2FE2
S11301C00E94AF0095E39A95F1F70000289ACF9129
S11301D0089585E38A95F1F70000289885E38A95C8
S11301E0F1F7000081EE0E94AF0085E38A95F1F7F4
S11301F00000289A85E38A95F1F7000008952C9869
S11302006EE180E00E94CD000E94E90087E592E063
S11302100197F1F700C0000008952FEF81EE94E0FC
S1130220215080409040E1F700C0000061E081E08F
S11302300E94CD0061E082E00E94CD0063E083E093
S11302400E94CD0069E685E00E94CD006EE086E064
S11302500E94CD0025E32A95F1F70000289885E354
S11302608A95F1F700008AE20E94AF0095E39A951F
S1130270F1F7000081E10E94AF0025E32A95F1F730
S1130280000082E10E94AF0085E38A95F1F7000047
S113029083E10E94AF0095E39A95F1F7000084E1B1
S11302A00E94AF0025E32A95F1F7000085E10E9442
S11302B0AF0085E38A95F1F70000289A95E39A95B3
S11302C0F1F70000289825E32A95F1F7000080E370
S11302D00E94AF0085E38A95F1F700008AEA0E9444
S11302E0AF0095E39A95F1F700008BEB0E94AF0005
S11302F025E32A95F1F700008CEC0E94AF0085E31A
S11303008A95F1F700008DED0E94AF0095E39A9570
S1130310F1F700008EEE0E94AF0025E32A95F1F775
S11303200000289A68E081E10E94CD000E94FF004D
S11303308FEF91EE24E0815090402040E1F700C01F
S11303400000089585E38A95F1F70000289885E375
S11303508A95F1F7000082EE0E94AF0085E38A954A
S1130360F1F70000289A85E38A95F1F700000895D3
S11303700F931F93CF93DF93662369F0C0E0D1E01E
S11303806150062F10E00F5F1E4F89910E94AF004D
S1130390C017D107D1F7DF91CF911F910F91089525
S11303A00E94E900289885E38A95F1F7000080EA25
S11303B00E94AF0085E38A95F1F7000068E080E0D1
S11303C091E00E94B80185E38A95F1F70000289A2C
S11303D080E58A95F1F72C9A8AE68A95F1F700C0B0
S11303E00895EF92FF920F931F93CF93DF934423CB
S11303F0C9F0EC01062F172F4150E42EF12C2FEFFA
S1130400E21AF20AE80EF91E89910E94AF00F8017F
S113041081938F010E94990081E10E949900CE1579
S1130420DF0591F7DF91CF911F910F91FF90EF902E
S11304300895CF93DF93EC01289881E60E94AF00E2
S113044048E0BE01CE010E94F101289A60E487E0F1
S11304500E94CD00DF91CF91089528988FEF0E94DC
S1130460AF00289A08950E942D02982F907381E07E
S113047009F080E0089587E10E94B5008170089535
S11304800E942D0286FD07C00E943B0291E0882352
S113049019F090E001C091E0892F089585E38A95D1
S11304A0F1F7000060E787E00E94CD0085E38A95BC
S11304B0F1F7000008952C986FE180E00E94CD00D0
S11304C00E94A2010E944E022C9A87E592E00197B5
S11304D0F1F700C0000008950E9475000E94A10079
S11304E00E940D010E94810010E0D1E0C12FC111D2
S11304F018C00E94FF0085E50E94990080E091E009
S11305000E94D0010E9433028111FCCF0E944E024E
S113051086E60E9499000E945B0287E70E94990088
S1130520CD2F0E944002882311F388E80E9499008D
S111053088E091E00E941902D9CFF894FFCF21
S10B053EAAAAAAAAAAAAAAAA61
S9030000FC
