:100000000C9456000C9473000C9473000C947300C1
:100010000C9473000C9473000C9473000C945D02A8
:100020000C9473000C9473000C9473000C94730084
:100030000C9473000C9473000C9473000C94730074
:100040000C9473000C9473000C9473000C94730064
:100050000C9473000C9473000C9473000C94730054
:100060000C9473000C9473000C9473000C94730044
:100070000C9473000C9473000C9473000C94730034
:100080000C9473000C9473000C9473000C94730024
:100090000C9473000C9473000C9473000C94730014
:1000A0000C9473000C9473000C94730011241FBE05
:1000B000CFEFDAE0DEBFCDBF11E0A0E0B1E0ECEAC7
:1000C000F5E002C005900D92A830B107D9F721E004
:1000D000A8E0B1E001C01D92A131B207E1F70E9492
:1000E000AF020C94D4020C9400002FEF8EE994E23E
:1000F000215080409040E1F700C00000519A509894
:100100000895519A509880E190E09093CD008093AB
:10011000CC00E8ECF0E080818D7F8083EAECF0E0B9
:10012000808186608083E9ECF0E080818861808353
:100130000895E8ECF0E0908195FFFDCF8093CE002C
:100140000895249A209A229A219A23988CB5816541
:100150008CBD8CB58C7F8CBD289A2C9808958EBD53
:100160000DB407FEFDCF8EB5089595E39A95F1F78E
:100170000000289895E39A95F1F700000E94AF00DF
:1001800085E38A95F1F700008FEF0E94AF0095E3B9
:100190009A95F1F70000289A0895CF93C62F95E31A
:1001A0009A95F1F70000289895E39A95F1F70000E9
:1001B000805E0E94AF0085E38A95F1F700008C2FE6
:1001C0000E94AF0095E39A95F1F70000289ACF912D
:1001D000089585E38A95F1F70000289885E38A95CC
:1001E000F1F7000081EE0E94AF0085E38A95F1F7F8
:1001F0000000289A85E38A95F1F7000008952C986D
:1002000080E00E94B500682F6E7F80E00E94CD00E4
:1002100080E00E94B500682F626080E00E94CD00FF
:100220000E94E90060E787E00E94CD0080E00E9424
:10023000B500682F606380E00E94CD0087E592E002
:100240000197F1F700C00000089561E081E00E948D
:10025000CD0061E082E00E94CD0063E083E00E9477
:10026000CD0069E685E00E94CD006EE086E00E9448
:10027000CD0085E38A95F1F70000289895E39A95DB
:10028000F1F700008AE20E94AF0085E38A95F1F75A
:10029000000081E10E94AF0095E39A95F1F700001C
:1002A00082E10E94AF0085E38A95F1F7000083E1C7
:1002B0000E94AF0095E39A95F1F7000084E10E9457
:1002C000AF0085E38A95F1F7000085E10E94AF0059
:1002D00095E39A95F1F70000289A85E38A95F1F75E
:1002E0000000289895E39A95F1F7000080E30E94BA
:1002F000AF0085E38A95F1F700008AEA0E94AF001B
:1003000095E39A95F1F700008BEB0E94AF0085E32F
:100310008A95F1F700008CEC0E94AF0095E39A9566
:10032000F1F700008DED0E94AF0085E38A95F1F7AB
:1003300000008EEE0E94AF0095E39A95F1F7000061
:10034000289A68E081E10E94CD006FE284E00E947B
:10035000CD000E94FF008FE39CE90197F1F700C0F8
:100360000000089585E38A95F1F70000289885E359
:100370008A95F1F7000082EE0E94AF0085E38A952E
:10038000F1F70000289A85E38A95F1F700000895B7
:100390002C9880E00E94B500682F636080E00E9486
:1003A000CD000E94B20160E787E00E94CD0080E0AE
:1003B0000E94B500682F606380E00E94CD002C9AF7
:1003C00087E592E00197F1F700C0000008950F93D0
:1003D0001F93CF93DF93662369F0C0E0D1E06150B3
:1003E000062F10E00F5F1E4F89910E94AF00C017CB
:1003F000D107D1F7DF91CF911F910F9108950E94FE
:10040000E900289885E38A95F1F7000080EA0E94C8
:10041000AF0085E38A95F1F7000068E080E091E0A5
:100420000E94E70185E38A95F1F70000289A85E3A9
:100430008A95F1F700002C9A85E38A95F1F7000080
:100440002C98089528988FEF0E94AF00289A08955D
:100450000E942202982F907381E009F080E00895B5
:10046000EAE6F0E080818F7E8083EE9A78940895AA
:10047000EF92FF920F931F93CF93DF934423B1F03A
:10048000EC01062F172F4150E42EF12C2FEFE21A2A
:10049000F20AE80EF91E89910E94AF00F8018193DB
:1004A0008F010E949900CE15DF05A9F7DF91CF914A
:1004B0001F910F91FF90EF9008951F920F920FB62A
:1004C0000F9211242F933F934F935F936F937F93DA
:1004D0008F939F93AF93BF93EF93FF93F8942C98D0
:1004E000289885E38A95F1F7000081E60E94AF0025
:1004F00085E38A95F1F7000048E069E071E0CB01FF
:100500000E94380285E38A95F1F70000289A85E376
:100510008A95F1F7000060E487E00E94CD00109218
:100520000801FF91EF91BF91AF919F918F917F91C2
:100530006F915F914F913F912F910F900FBE0F9050
:100540001F90189585E38A95F1F7000060E787E032
:100550000E94CD0085E38A95F1F7000008950E947E
:1005600075000E94A1000E9425010E9481000E9446
:10057000300210920801F894C1E0809108018111C5
:10058000FCCF0E94FF0080E091E00E94FF010E94EA
:1005900028028111FCCF0E94A202C09308010E9490
:0C05A000C8012C9A7894E9CFF894FFCFA2
:0805AC00AAAAAAAAAAAAAAAAF7
:00000001FF
