:100000000C9456000C9468000C9468000C946800E2
:100010000C9468000C9468000C9468000C946800C0
:100020000C9468000C9468000C9468000C946800B0
:100030000C9468000C9468000C9468000C946800A0
:100040000C9468000C9468000C9468000C94680090
:100050000C9468000C9468000C9468000C94680080
:100060000C9468000C9468000C9468000C94680070
:100070000C9468000C9468000C9468000C94680060
:100080000C9468000C9468000C9468000C94680050
:100090000C9468000C9468000C9468000C94680040
:1000A0000C9468000C9468000C94680011241FBE26
:1000B000CFEFDAE0DEBFCDBF21E0A0E0B1E001C0CC
:1000C0001D92A130B207E1F70E94BC000C94D00051
:1000D0000C9400002FEF89E698E121508040904079
:1000E000E1F700C00000519A8AB18E6F8AB9089575
:1000F000EAE7F0E0808187608083ACE7B0E08C9134
:1001000080648C938C9180628C93808180688083E2
:10011000089587E690E09093CD008093CC00E8ECC2
:10012000F0E080818D7F8083EAECF0E08081866062
:100130008083E9ECF0E08081886180830895ECE7BA
:10014000F0E08081807E8083EAE7F0E08081806457
:100150008083808184FFFDCFEAE7F0E080818061C9
:100160008083809179000895E8ECF0E0908195FF1C
:10017000FDCF8093CE0008950E946A000E9478000F
:100180000E9489000E949F00809300018AEA0E94D9
:10019000B4008FE39CE90197F1F700C00000F2CFB3
:0401A000F894FFCF01
:00000001FF
