S01600004E315F424E4F5F4D41585F6E52462E73726563A7
S11300000C9456000C9473000C9473000C947300BD
S11300100C9473000C9473000C9473000C94FA0207
S11300200C9473000C9473000C9473000C94730080
S11300300C9473000C9473000C9473000C94730070
S11300400C9473000C9473000C9473000C94730060
S11300500C9473000C9473000C9473000C94730050
S11300600C9473000C9473000C9473000C94730040
S11300700C9473000C9473000C9473000C94730030
S11300800C9473000C9473000C9473000C94730020
S11300900C9473000C9473000C9473000C94730010
S11300A00C9473000C9473000C94730011241FBE01
S11300B0CFEFDAE0DEBFCDBF11E0A0E0B1E0E0E1D8
S11300C0F8E002C005900D92AA30B107D9F721E0FB
S11300D0AAE0B1E001C01D92A937B207E1F70E947E
S11300E04A030C9406040C94000090E080E80FB6D8
S11300F0F89480936100909361000FBE519A5098D8
S11301003E9A3F9A85E090E04698479A2FEF30E771
S113011042E0215030404040E1F700C00000469AE0
S113012047982FEF30E742E0215030404040E1F75C
S113013000C00000019741F7469847988FE79FE475
S113014022E1815090402040E1F700C00000089572
S113015083E390E09093CD008093CC00E8ECF0E052
S113016080818D7F8083EAECF0E0808186608083EB
S1130170E9ECF0E08081886180830895E8ECF0E0A8
S1130180908195FFFDCF8093CE00089580E50E9475
S1130190AA0380E00E94DE0381E50E94D2030E944C
S11301A0FB0380935A010E94D50380E50E94AA03B1
S11301B08FE30E94DE0380E20E94DE030E94D503E7
S11301C02FE78FE492E1215080409040E1F700C096
S11301D0000080E50E94AA038DE30E94DE038CE008
S11301E00E94DE030E94D5032FEF80E792E02150A6
S11301F080409040E1F700C000000895CF93DF9362
S113020080E50E94AA0380E20E94DE0381E50E9449
S1130210D2030E94F003C5E2D1E08A830E94F00376
S11302208B830E94F0038C830E94F0038D830E94D1
S1130230F0038E830E94F0038F830E94F00388876B
S11302400E94FB0389870E94D503DF91CF91089513
S1130250259A209A229A219A23988CB580658CBD80
S11302608CB581608CBD8CB58D7F8CBD8DB5816066
S11302708DBD289A2D988FE19EE40197F1F700C077
S1130280000008958EBD0DB407FEFDCF8EB5089510
S11302909AE19A95F1F700C028989AE19A95F1F7B6
S11302A000C00E9442018AE18A95F1F700C08FEFF5
S11302B00E9442019AE19A95F1F700C0289A0895A4
S11302C0CF93C62F9AE19A95F1F700C028989AE146
S11302D09A95F1F700C0805E0E9442018AE18A95F6
S11302E0F1F700C08C2F0E9442019AE19A95F1F730
S11302F000C0289ACF9108950F931F93CF93DF9353
S1130300062F8AE18A95F1F700C028988AE18A9538
S1130310F1F700C08AE20E944201002381F0C5E0A7
S1130320D1E0015010E00A5F1E4F8AE18A95F1F78F
S113033000C089910E944201C017D107B1F78AE138
S11303408A95F1F700C0289ADF91CF911F910F9100
S113035008950F931F93CF93DF93062F8AE18A9515
S1130360F1F700C028988AE18A95F1F700C080E38C
S11303700E944201002381F0C0E0D1E0015010E06E
S11303800F5F1E4F8AE18A95F1F700C089910E94A0
S11303904201C017D107B1F78AE18A95F1F700C08D
S11303A0289ADF91CF911F910F9108958AE18A9540
S11303B0F1F700C028988AE18A95F1F700C081EE30
S11303C00E9442018AE18A95F1F700C0289A8AE1E5
S11303D08A95F1F700C008952D9880E00E944801A5
S11303E0682F6E7F80E00E94600180E00E944801D7
S11303F0682F626080E00E9460010E94D60160E77D
S113040087E00E94600180E00E944801682F6063D9
S113041080E00E9460018BE291E00197F1F700C057
S1130420000008958AE18A95F1F700C028988AE1CE
S11304308A95F1F700C082EE0E9442018AE18A9512
S1130440F1F700C0289A8AE18A95F1F700C008956F
S11304502D9880E00E944801682F636080E00E942C
S113046060010E94120260E787E00E94600180E060
S11304700E944801682F606380E00E9460012D9A09
S11304808BE291E00197F1F700C00000089561E06C
S113049081E00E94600161E082E00E94600163E00B
S11304A083E00E94600169E685E00E94600166E2E3
S11304B086E00E94600165E085E091E00E947C0195
S11304C065E080E091E00E94A9016AE081E10E9478
S11304D060016FEF84E00E9460010E9428028FE1B6
S11304E09EE40197F1F700C0000008950F931F9355
S11304F0CF93DF93662369F0C5E2D1E06150062F04
S113050010E00A5D1E4F89910E944201C017D10775
S1130510D1F7DF91CF911F910F9108950E94D601D9
S113052028988AE18A95F1F700C080EA0E94420186
S11305308AE18A95F1F700C06AE085E291E00E94C1
S113054076028AE18A95F1F700C0289A8AE18A95B1
S1130550F1F700C02D9A8AE18A95F1F700C02D9831
S1130560089528988FEF0E944201289A08950E94C6
S1130570B102982F907381E009F080E00895EAE6D3
S1130580F0E080818F7E8083EE9A78940895CF92F4
S1130590DF92EF92FF920F931F93CF93DF93442345
S11305A001F1082F192FEB014150E42EF12C8FEFAC
S11305B0E81AF80AE60EF71EF80181918F010E94ED
S11305C042016E0189930E94BE00F60180818A3A3D
S11305D029F4809178018F5F80937801CE15DF052F
S11305E059F7DF91CF911F910F91FF90EF90DF901A
S11305F0CF9008951F920F920FB60F9211242F934C
S11306003F934F935F936F937F938F939F93AF9396
S1130610BF93EF93FF93F8942D9828988AE18A95D5
S1130620F1F700C081E60E9442018AE18A95F1F760
S113063000C04AE060E571E0CB010E94C7028AE194
S11306408A95F1F700C0289A8AE18A95F1F700C0EB
S113065060E487E00E946001FF91EF91BF91AF9148
S11306609F918F917F916F915F914F913F912F91C6
S11306700F900FBE0F901F9018958AE18A95F1F79D
S113068000C060E787E00E9460018AE18A95F1F783
S113069000C008950E9475000E94A8000E947D0376
S11306A00E94C6000E9428010E9447020E94BF02C5
S11306B0E5E2F1E081E0808381830E9412020E94DE
S11306C03D032D9A809178018A30E1F710927801E8
S11306D00E94FE000E94EC0185E291E00E948E02DD
S11306E00E94B7028111FCCF0E9428020E941202CC
S11306F00E943D032D9A7894E5CF1092B90082E0D0
S11307008093B800089594EA9093BC00ECEBF0E079
S113071090819923ECF79091B900987F983011F06B
S11307209031A1F48093BB0084E88093BC00ECEB8F
S1130730F0E080818823ECF79091B900987F98319C
S113074039F081E0903429F480E0089581E008953F
S113075080E00895CF93DF93ECEBF0E024EAA9EB7B
S1130760B0E0CBEBD0E034E844E9208390819923D6
S1130770ECF79C91987F983011F09031B1F7888311
S1130780308390819923ECF79C91987F903211F0FB
S1130790983529F44083908194FDFDCFE6CFDF9115
S11307A0CF9108950E948303089584E98093BC0047
S11307B0ECEBF0E0808184FDFDCF08958093BB00D5
S11307C084E88093BC00ECEBF0E080818823ECF7B4
S11307D09091B900987F81E0983209F480E00895FF
S11307E084EC8093BC00ECEBF0E080818823ECF790
S11307F08091BB00089584E88093BC00ECEBF0E0AA
S113080080818823ECF78091BB000895F894FFCF92
S10D0810111213141511121314151C
S9030000FC
