:100000000C9456000C9468000C9468000C946800E2
:100010000C9468000C9468000C9468000C94F40232
:100020000C9468000C9468000C9468000C946800B0
:100030000C9468000C9468000C9468000C946800A0
:100040000C9468000C9468000C9468000C94680090
:100050000C9468000C9468000C9468000C94680080
:100060000C9468000C9468000C9468000C94680070
:100070000C9468000C9468000C9468000C94680060
:100080000C9468000C9468000C9468000C94680050
:100090000C9468000C9468000C9468000C94680040
:1000A0000C9468000C9468000C94680011241FBE26
:1000B000CFEFDAE0DEBFCDBF21E0A0E0B1E001C0CC
:1000C0001D92AE30B207E1F70E9444030C941B046A
:1000D0000C94000090E080E80FB6F89480936100E3
:1000E000909361000FBE519A50983E9A3F9A85E0D6
:1000F00090E04698479A2FEF30E742E02150304099
:100100004040E1F700C00000469A47982FEF30E7E3
:1001100042E0215030404040E1F700C0000001972C
:1001200041F7469847988FE79FE422E1815090403D
:100130002040E1F700C00000089583E390E0909331
:10014000CD008093CC00E8ECF0E080818D7F80834F
:10015000EAECF0E0808186608083E9ECF0E0808169
:10016000886180830895E8ECF0E0908195FFFDCFF1
:100170008093CE0008958CE60E94BF0382E00E9427
:10018000F3038DE60E94E7030E94050480930101BA
:100190000E94100480930C010E94EA0380910101E7
:1001A0000E94B30080910C010E94B300E3E0F1E0F3
:1001B00080910101808380910C01818308958CE6F8
:1001C0000E94BF0384E00E94F3038DE60E94E703D0
:1001D0000E940504809300010E9410048093020194
:1001E0000E94EA03809100010E94B3008091020105
:1001F0000E94B300E3E0F1E08091000182838091EE
:100200000201838308951F93CF93DF93182FD62F76
:10021000C42F8CE60E94BF03812F0E94F3038D2F11
:100220000E94F3038C2F0E94F3030E94EA03DF91E4
:10023000CF911F91089544E560E08EEF0E94030185
:10024000089540E060E486E00E9403010895259A45
:10025000209A229A219A23988CB580658CBD8CB502
:1002600081608CBD8CB58D7F8CBD8DB581608DBD61
:10027000289A2D988FE19EE40197F1F700C00000C5
:1002800008958EBD0DB407FEFDCF8EB508959AE199
:100290009A95F1F700C028989AE19A95F1F700C075
:1002A0000E9441018AE18A95F1F700C08FEF0E9418
:1002B00041019AE19A95F1F700C0289A0895CF93E9
:1002C000C62F9AE19A95F1F700C028989AE19A957D
:1002D000F1F700C0805E0E9441018AE18A95F1F742
:1002E00000C08C2F0E9441019AE19A95F1F700C05D
:1002F000289ACF9108958AE18A95F1F700C028984D
:100300008AE18A95F1F700C081EE0E9441018AE1FD
:100310008A95F1F700C0289A8AE18A95F1F700C022
:1003200008952D9880E00E944701682F6E7F80E03D
:100330000E945F0180E00E944701682F626080E0B8
:100340000E945F010E947B0160E787E00E945F01DD
:1003500080E00E944701682F606380E00E945F0197
:100360008BE291E00197F1F700C0000008958AE167
:100370008A95F1F700C028988AE18A95F1F700C0C4
:1003800082EE0E9441018AE18A95F1F700C0289A25
:100390008AE18A95F1F700C008952D9880E00E94C7
:1003A0004701682F636080E00E945F010E94B701EF
:1003B00060E787E00E945F0180E00E944701682FAC
:1003C000606380E00E945F012D9A8BE291E00197CB
:1003D000F1F700C00000089561E081E00E945F0134
:1003E00061E082E00E945F0163E083E00E945F01C0
:1003F00069E685E00E945F0166E286E00E945F0197
:100400008AE18A95F1F700C028989AE19A95F1F768
:1004100000C08AE20E9441018AE18A95F1F700C09A
:100420008AEA0E9441019AE19A95F1F700C08BEBAC
:100430000E9441018AE18A95F1F700C08CEC0E948C
:1004400041019AE19A95F1F700C08DED0E944101BA
:100450008AE18A95F1F700C08EEE0E9441019AE18F
:100460009A95F1F700C0289A8AE18A95F1F700C0C1
:1004700028989AE19A95F1F700C080E30E94410123
:100480008AE18A95F1F700C081E10E9441019AE179
:100490009A95F1F700C082E10E9441018AE18A95B4
:1004A000F1F700C083E10E9441019AE19A95F1F7CA
:1004B00000C084E10E9441018AE18A95F1F700C001
:1004C00085E10E9441019AE19A95F1F700C0289ACE
:1004D00064E081E10E945F016FE284E00E945F01BD
:1004E0000E94CD018FE19EE40197F1F700C000006A
:1004F00008950F931F93CF93DF93662369F0C3E0B2
:10050000D1E06150062F10E00C5F1E4F89910E94D0
:100510004101C017D107D1F7DF91CF911F910F9102
:1005200008950E947B0128988AE18A95F1F700C01E
:1005300080EA0E9441018AE18A95F1F700C064E0F7
:1005400083E091E00E9479028AE18A95F1F700C088
:10055000289A8AE18A95F1F700C02D9A8AE18A9556
:10056000F1F700C02D98089528988FEF0E9441015F
:10057000289A08950E94B402982F907381E009F0A0
:1005800080E00895EAE6F0E080818F7E8083EE9A35
:1005900078940895EF92FF920F931F93CF93DF9378
:1005A0004423D9F0EC01062F172F4150E42EF12CF3
:1005B0002FEFE21AF20AE80EF91E89910E9441011A
:1005C000F80181938F018A3A29F480910D018F5FA0
:1005D00080930D01CE15DF0581F7DF91CF911F913B
:1005E0000F91FF90EF9008951F920F920FB60F9208
:1005F00011242F933F934F935F936F937F938F9328
:100600009F93AF93BF93EF93FF93F8942D982898FF
:100610008AE18A95F1F700C081E60E9441018AE1F2
:100620008A95F1F700C044E068E071E0CB010E94D8
:10063000CA028AE18A95F1F700C0289A8AE18A9570
:10064000F1F700C060E487E00E945F01FF91EF9145
:10065000BF91AF919F918F917F916F915F914F91DA
:100660003F912F910F900FBE0F901F9018958AE128
:100670008A95F1F700C060E787E00E945F018AE198
:100680008A95F1F700C008950E946A000E949203C3
:100690000E949D000E9427010E94EC010E94C2025C
:1006A00010920D011092010110920C0110920001A4
:1006B000109202010E941B010E9421012FEF89E686
:1006C00098E1215080409040E1F700C000000E9476
:1006D000B7010E9437032D9A80910D018430E1F714
:1006E00010920D010E9491010E94BB000E94DF0048
:1006F0002FEF89E698E1215080409040E1F700C05B
:10070000000083E091E00E9491020E94BA028111F0
:10071000FCCF0E9437030E94CD010E94B7012D9AA1
:100720007894DACF1092B90082E08093B8000895EF
:1007300094EA9093BC00ECEBF0E090819923ECF705
:100740009091B900987F983011F09031A1F4809386
:10075000BB0084E88093BC00ECEBF0E08081882350
:10076000ECF79091B900987F983139F081E090349E
:1007700029F480E0089581E0089580E00895CF9302
:10078000DF93ECEBF0E024EAA9EBB0E0CBEBD0E0B8
:1007900034E844E9208390819923ECF79C91987F79
:1007A000983011F09031B1F788833083908199238C
:1007B000ECF79C91987F903211F0983529F44083A2
:1007C000908194FDFDCFE6CFDF91CF9108950E94F7
:1007D0009803089584E98093BC00ECEBF0E08081FD
:1007E00084FDFDCF08958093BB0084E88093BC0016
:1007F000ECEBF0E080818823ECF79091B900987FD2
:1008000081E0983209F480E0089584EC8093BC0084
:10081000ECEBF0E080818823ECF78091BB00089539
:1008200084E88093BC00ECEBF0E080818823ECF757
:0A0830008091BB000895F894FFCFFB
:00000001FF
