S010000052626B796F5F54582E7372656302
S11300000C9456000C946B000C946B000C946B00D5
S11300100C946B000C946B000C946B000C946B00B0
S11300200C946B000C946B000C946B000C946B00A0
S11300300C946B000C946B000C946B000C946B0090
S11300400C946B000C946B000C946B000C946B0080
S11300500C946B000C946B000C946B000C946B0070
S11300600C946B000C946B000C946B000C946B0060
S11300700C946B000C946B000C946B000C946B0050
S11300800C946B000C946B000C946B000C946B0040
S11300900C946B000C946B000C946B000C946B0030
S11300A00C946B000C946B000C946B0011241FBE19
S11300B0CFEFDAE0DEBFCDBF11E0A0E0B1E0E6E4CF
S11300C0F3E002C005900D92AC30B107D9F70E945D
S11300D08E010C94A1010C940000249A209A229A77
S11300E0219A23988CB581658CBD8CB58C7F8CBD91
S11300F0289A2C9808958EBD0DB407FEFDCF8EB5B9
S11301000895CF93C62F95E39A95F1F700002898A8
S113011095E39A95F1F70000805E0E947B0085E3E9
S11301208A95F1F700008C2F0E947B0095E39A9545
S1130130F1F70000289ACF9108952FEF81EE94E013
S1130140215080409040E1F700C0000061E082E06F
S11301500E94810063E083E00E94810069E685E0FB
S11301600E9481006EE086E00E94810025E32A95CA
S1130170F1F70000289885E38A95F1F700008AE2F8
S11301800E947B0095E39A95F1F7000081E00E94BC
S11301907B0025E32A95F1F7000082E00E947B00B2
S11301A085E38A95F1F7000083E00E947B0095E3E4
S11301B09A95F1F7000084E00E947B0025E32A95DC
S11301C0F1F7000085E00E947B0085E38A95F1F752
S11301D00000289A95E39A95F1F70000289825E302
S11301E02A95F1F7000080E30E947B0085E38A955D
S11301F0F1F7000081E00E947B0095E39A95F1F706
S1130200000082E00E947B0025E32A95F1F70000BC
S113021083E00E947B0085E38A95F1F7000084E087
S11302200E947B0095E39A95F1F7000085E00E9417
S11302307B0025E32A95F1F70000289A61E081E12B
S11302400E9481006EE180E00E9481008FEF91EEB8
S113025024E0815090402040E1F700C00000089560
S113026085E38A95F1F70000289885E38A95F1F7EC
S1130270000081EE0E947B0085E38A95F1F700007F
S1130280289A85E38A95F1F700000895CF93C82F43
S11302900E943001289885E38A95F1F7000080EAEE
S11302A00E947B0095E39A95F1F700008C2F0E9441
S11302B07B0085E38A95F1F70000289A8FE39CE997
S11302C00197F1F700C000002C9A9AE69A95F1F78D
S11302D000C02C988FE39CE90197F1F700C000005F
S11302E0CF91089585E38A95F1F7000060E787E0F0
S11302F00E94810085E38A95F1F700000895CF9369
S1130300DF93EC018881882331F021960E94460115
S113031089918111FBCFDF91CF9108950E946D00E7
S11303200E949D0080E091E00E947F010E94720182
S11303308FE39CE90197F1F700C000000E9472016D
S1090340F1CFF894FFCF99
S10F0346486D6D6D6D6D6D2E2E2E0A003D
S9030000FC
