S012000045475F424E4F5F4D55582E73726563EF
S11300000C9456000C9473000C9473000C947300BD
S11300100C9473000C9473000C9473000C94730090
S11300200C9473000C9473000C9473000C94730080
S11300300C9473000C9473000C9473000C94730070
S11300400C9473000C9473000C9473000C94730060
S11300500C9473000C9473000C9473000C94730050
S11300600C9473000C9473000C9473000C94730040
S11300700C9473000C9473000C9473000C94730030
S11300800C9473000C9473000C9473000C94730020
S11300900C9473000C9473000C9473000C94730010
S11300A00C9473000C9473000C94730011241FBE01
S11300B0CFEFDAE0DEBFCDBF11E0A0E0B1E0E8E6CB
S11300C0F9E002C005900D92A039B107D9F721E0FB
S11300D0A0E9B1E001C01D92A93DB207E1F70E9479
S11300E0AD020C94B2040C94000090E080E80FB6CA
S11300F0F89480936100909361000FBE519A5098D8
S11301003E9A3F9A549A569A579A85E090E04698B8
S1130110479A2FEF30E742E0215030404040E1F76A
S113012000C00000469A47982FEF30E742E0215084
S113013030404040E1F700C00000019741F7469885
S113014047981092AA018FE79FE422E181509040E2
S11301502040E1F700C00000089583E390E090930D
S1130160CD008093CC00E8ECF0E080818D7F80832B
S1130170EAECF0E0808186608083E9ECF0E0808145
S1130180886180830895E8ECF0E0908195FFFDCFCD
S11301908093CE000895CF93DF93EC018881882368
S11301A031F021960E94C30089918111FBCFDF9128
S11301B0CF9108958330A1F028F4813049F0823042
S11301C059F01EC08530A1F078F08630A9F018C02F
S11301D05C9A5E985F9A08955C985E985F9A089519
S11301E05C985E9A5F9808955C9A5E985F9808950B
S11301F05C985E985F9808955C9A5E9A5F980895FB
S113020084E091E00E94CB000895CF9381E00E94A6
S1130210DA0080E50E94F00280E00E94240381E578
S11302200E9418030E944103C82F0E941B03C03A76
S113023029F084E191E00E94CB0007C08AE291E0BA
S11302400E94CB0080EA0E94C30080E50E94F00275
S11302508FE30E94240380E20E9424030E941B0374
S11302602FE78FE492E1215080409040E1F700C0F5
S1130270000080E50E94F0028DE30E9424038CE0DC
S11302800E9424030E941B032FEF80E792E0215079
S113029080409040E1F700C00000CF9108958F9214
S11302A09F92AF92BF92CF92DF92EF92FF920F9301
S11302B01F93CF93DF9380E50E94F0028AE10E94AE
S11302C0240381E50E9418030E9436038093A2014F
S11302D00E9436038093CB010E9436038093A701CA
S11302E00E9436038093CE010E9436038093CD0191
S11302F00E9441038093CC010E941B036091CB01B7
S113030070E0762F66278091A201682B7093A1017B
S11303106093A0010091CE0110E0102F002780917E
S1130320A701082B1093A9010093A801C091CC0147
S1130330D0E0DC2FCC278091CD01C82BD093D801FD
S1130340C093D701C0900001D0900101E090020158
S1130350F0900301072E000C880B990B0E94840374
S1130360A70196010E94E8034B015C016093CF0151
S11303707093D0018093D1019093D201B801110FF1
S1130380880B990B0E948403A70196010E94E8033D
S11303906093A3017093A4018093A5019093A60197
S11303A0BE01DD0F880B990B0E948403A7019601FF
S11303B00E94E8036093D3017093D4018093D50124
S11303C09093D601C501B4010E944C03DC01CB011A
S11303D04AE06BEA71E00E947D046091A301709190
S11303E0A4018091A5019091A6010E944C03DC0117
S11303F0CB014AE06BEB71E00E947D046091D30174
S11304007091D4018091D5019091D6010E944C0342
S1130410DC01CB014AE060E971E00E947D048AE6D8
S113042091E00E94CB008BEA91E00E94CB008FE622
S113043091E00E94CB008BEB91E00E94CB0085E71A
S113044091E00E94CB0080E991E00E94CB0088E219
S113045091E00E94CB00DF91CF911F910F91FF900B
S1130460EF90DF90CF90BF90AF909F908F900895C2
S1130470BF92CF92DF92EF92FF920F931F93CF938D
S1130480DF93CDB7DEB7E0970FB6F894DEBF0FBEAB
S1130490CDBF80E50E94F0028EE00E94240381E536
S11304A00E9418030E943603D82E0E943603C82ED9
S11304B00E943603E82E0E943603182F0E9436034A
S11304C0082F0E944103B82E0E941B03F12CF12A2D
S11304D010E01B298D2D90E04AE0BE016F5F7F4F35
S11304E09C290E947D044AE0BE016F5E7F4FC701D4
S11304F00E947D044AE0BE016F5D7F4FC8010E94E7
S11305007D048BE791E00E94CB00CE0101960E940E
S1130510CB0080E891E00E94CB00CE0141960E947E
S1130520CB0086E891E00E94CB00CE0181960E9428
S1130530CB008CE891E00E94CB00E0960FB6F894D3
S1130540DEBF0FBECDBFDF91CF911F910F91FF9002
S1130550EF90DF90CF90BF9008950E9475000E94A5
S1130560AD000E94C3020E9405010E9438020E944D
S11305704F012FEF84E39CE0215080409040E1F74D
S113058000C00000F2CF1092B90082E08093B8005E
S1130590089594EA9093BC00ECEBF0E090819923E9
S11305A0ECF79091B900987F983011F09031A1F454
S11305B08093BB0084E88093BC00ECEBF0E0808186
S11305C08823ECF79091B900987F983139F081E055
S11305D0903429F480E0089581E0089580E008953E
S11305E0CF93DF93ECEBF0E024EAA9EBB0E0CBEBA4
S11305F0D0E034E844E9208390819923ECF79C917E
S1130600987F983011F09031B1F7888330839081CE
S11306109923ECF79C91987F903211F0983529F446
S11306204083908194FDFDCFE6CFDF91CF91089573
S11306300E94C902089584E98093BC00ECEBF0E0C9
S1130640808184FDFDCF08958093BB0084E880936E
S1130650BC00ECEBF0E080818823ECF79091B900CA
S1130660987F81E0983209F480E0089584EC8093C7
S1130670BC00ECEBF0E080818823ECF78091BB00B8
S1130680089584E88093BC00ECEBF0E0808188233B
S1130690ECF78091BB0008950E9453036894B11154
S11306A00C94E20308950E94C70388F09F5798F0C2
S11306B0B92F9927B751B0F0E1F0660F771F881F63
S11306C0991F1AF0BA95C9F714C0B13091F00E947D
S11306D0E103B1E008950C94E103672F782F882794
S11306E0B85F39F0B93FCCF3869577956795B395A4
S11306F0D9F73EF490958095709561957F4F8F4F13
S11307009F4F0895E89409C097FB3EF49095809517
S1130710709561957F4F8F4F9F4F9923A9F0F92FC3
S113072096E9BB279395F695879577956795B79541
S1130730F111F8CFFAF4BB0F11F460FF1BC06F5F27
S11307407F4F8F4F9F4F16C0882311F096E911C039
S1130750772321F09EE8872F762F05C0662371F05A
S113076096E8862F70E060E02AF09A95660F771F6E
S1130770881FDAF7880F9695879597F9089557FD9E
S11307809058440F551F59F05F3F71F04795880FFB
S113079097FB991F61F09F3F79F087950895121692
S11307A013061406551FF2CF4695F1DF08C016163E
S11307B017061806991FF1CF8695710561050894EF
S11307C00895E894BB2766277727CB0197F9089506
S11307D00E94FB030C946C040E945E0438F00E9497
S11307E0650420F0952311F00C9455040C945B04DB
S11307F011240C94E2030E94BF0370F3959FC1F38C
S1130800950F50E0551F629FF001729FBB27F00DBA
S1130810B11D639FAA27F00DB11DAA1F649F66270F
S1130820B00DA11D661F829F2227B00DA11D621F5E
S1130830739FB00DA11D621F839FA00D611D221F18
S1130840749F3327A00D611D231F849F600D211DFC
S1130850822F762F6A2F11249F5750409AF0F1F07F
S113086088234AF0EE0FFF1FBB1F661F771F881FE8
S113087091505040A9F79E3F510580F00C945504C7
S11308800C94E2035F3FE4F3983ED4F386957795A6
S11308906795B795F795E7959F5FC1F7FE2B880F8E
S11308A0911D9695879597F9089597F99F6780E824
S11308B070E060E008959FEF80EC089500240A94AE
S11308C01616170618060906089500240A94121627
S11308D01306140605060895092E0394000C11F45A
S11308E0882352F0BB0F40F4BF2B11F460FF04C007
S11308F06F5F7F4F8F4F9F4F0895BB274A3031F46E
S1130900992322F4BDE2909581959F4F0C9489041C
S1130910BB27FB015527AA27880F991FAA1FA417D5
S113092010F0A41B83955051B9F7A05DAA3308F0C9
S1130930A95DA193009779F7B111B1931192CB01FD
S11309400C94A204DC01FC01672F71917723E1F779
S1130950329704C07C916D9370836291AE17BF0788
S10B0960C8F30895F894FFCFD9
S11309680000803D57726F6E67204368616E6E6544
S11309786C210A00424E4F303535206E6F74206466
S113098865746563746564210A00424E4F303535D9
S1130998207375636365737366756C6C7920636F14
S11309A86E6E65637465640A005B43414C49425D3D
S11309B820005359533A20004759523A20004143E2
S11309C8433A20004D41473A200045483A20002048
S11309D845523A20002045503A20004D583A20000C
S11309E8204D593A2000204D5A3A2000202000007A
S9030000FC
