:100000000C9456000C9473000C9473000C947300C1
:100010000C9473000C9473000C9473000C94730094
:100020000C9473000C9473000C9473000C94730084
:100030000C9473000C9473000C9473000C94730074
:100040000C9473000C9473000C9473000C94730064
:100050000C9473000C9473000C9473000C94730054
:100060000C9473000C9473000C9473000C94730044
:100070000C9473000C9473000C9473000C94730034
:100080000C9473000C9473000C9473000C94730024
:100090000C9473000C9473000C9473000C94730014
:1000A0000C9473000C9473000C94730011241FBE05
:1000B000CFEFDAE0DEBFCDBF11E0A0E0B1E0E8E8CD
:1000C000F3E002C005900D92AA30B107D9F721E004
:1000D000AAE0B1E001C01D92AB32B207E1F70E9485
:1000E0009E010C94C2010C940000EAE7F0E08081CC
:1000F00087608083ACE7B0E08C9180648C938C91B6
:1001000080628C93808180688083089584B186604A
:1001100084B923988CB580658CBD089584B18161C4
:1001200084B92C98289A85E38A95F1F70000089500
:100130008EBD0DB407FEFDCF8EB50895CF93C62FAB
:1001400028988F7180620E9498008C2F0E949800DE
:10015000289ACF910895EF92FF920F931F93CF9318
:100160007B01042F28988F7180620E94980010E014
:10017000101611068CF4C0E0F701EC0FF11DC7FD5D
:10018000FA9580810E949800CF5F8C2F0C2E000C76
:10019000990B8017910784F3289ACF911F910F91A3
:1001A000FF90EF90089528988F710E9498008FEF2C
:1001B0000E949800289A0895CF93C82F86E00E9445
:1001C000D300C13039F018F0C23031F007C0877F5A
:1001D000806204C0877D02C08F7D8860682F86E0C2
:1001E0000E949E00CF910895CF93C82F86E00E9471
:1001F000D300C13041F028F0C23041F0C33049F0A3
:1002000009C0897F07C08B7F826004C08D7F8460B6
:1002100001C08660682F86E00E949E00CF910895FD
:1002200087E00E94D300982F907381E009F080E06E
:100230000895813051F018F0823081F008952C98A3
:1002400068E080E00E949E00089560E787E00E94D9
:100250009E006AE080E00E949E000895289882EE49
:100260000E949800289A60E787E00E949E002C98E0
:100270006BE080E00E949E002C9A089569E685E07C
:100280000E949E0082E00E94DC0083E00E94F40055
:1002900061E081E10E949E0060E08CE10E949E008E
:1002A00063E083E00E949E0045E060E071E08AE048
:1002B0000E94AB0045E065E071E080E10E94AB0088
:1002C00061E081E00E949E0060E084E00E949E0068
:1002D00068E080E00E949E0081E00E94190108957C
:1002E000CF93DF93EC012C9881E00E9419012898AC
:1002F00081EE0E949800289A289880EA0E9498002F
:100300008FEF0E9498008883289A2C9ADF91CF91D2
:100310000895ECE7F0E08081817C8083EAE7F0E0FB
:10032000808180648083808184FFFDCFEAE7F0E0F4
:100330008081806180838091790008952FEF89E624
:1003400098E1215080409040E1F700C000000E94F9
:1003500086000E9475000E948E000E943E01CBE044
:10036000D1E00E9489018883CE010E9470010E9421
:1003700010018111FCCF8FE39CE90197F1F700C0D8
:080380000000EFCFF894FFCF5D
:0A0388005555555555AAAAAAAAAA70
:00000001FF
