S0180000546573745F6E524632344C30315F54582E73726563E9
S11300000C9456000C9473000C9473000C947300BD
S11300100C9473000C9473000C9473000C94730090
S11300200C9473000C9473000C9473000C94730080
S11300300C9473000C9473000C9473000C94730070
S11300400C9473000C9473000C9473000C94730060
S11300500C9473000C9473000C9473000C94730050
S11300600C9473000C9473000C9473000C94730040
S11300700C9473000C9473000C9473000C94730030
S11300800C9473000C9473000C9473000C94730020
S11300900C9473000C9473000C9473000C94730010
S11300A00C9473000C9473000C94730011241FBE01
S11300B0CFEFDAE0DEBFCDBF11E0A0E0B1E0EAE3CC
S11300C0F4E002C005900D92AA30B107D9F721E0FF
S11300D0AAE0B1E001C01D92AA30B207E1F70E9484
S11300E003020C941B020C940000EAE7F0E0808108
S11300F087608083ACE7B0E08C9180648C938C91B2
S113010080628C93808180688083089584B1866244
S113011084B923988CB581658CBD8CB58C7F8CBDDE
S11301202D9A0895249A2C9885E38A95F1F7000076
S113013008958EBD0DB407FEFDCF8EB50895CF93FF
S1130140C62F95E39A95F1F700002D9895E39A95BB
S1130150F1F700008F7180620E94990085E38A950F
S1130160F1F700008C2F0E94990095E39A95F1F71E
S113017000002D9ACF910895EF92FF920F931F9351
S1130180CF937B01042F95E39A95F1F700002D9806
S113019095E39A95F1F700008F7180620E949900AF
S11301A010E010161106ACF4C0E085E38A95F1F76F
S11301B00000F701EC0FF11DC7FDFA9580810E9444
S11301C09900CF5F8C2F0C2E000C990B8017910790
S11301D064F395E39A95F1F700002D9ACF911F915E
S11301E00F91FF90EF90089595E39A95F1F7000031
S11301F02D9895E39A95F1F700008F710E9499006C
S113020085E38A95F1F700008FEF0E94990095E34A
S11302109A95F1F700002D9A0895CF93C82F86E0A0
S11302200E94F400C13039F018F0C23031F007C038
S1130230877F806204C0877D02C08F7D8860682FBD
S113024086E00E949F00CF910895CF93C82F86E047
S11302500E94F400C13041F028F0C23041F0C330B4
S113026049F009C0897F07C08B7F826004C08D7FFD
S1130270846001C08660682F86E00E949F00CF9151
S1130280089585E38A95F1F700002D9885E38A9512
S1130290F1F7000081EE0E94990085E38A95F1F759
S11302A000002D9A85E38A95F1F700000895CF9315
S11302B0C82F0E9441012D9885E38A95F1F700002B
S11302C080EA0E94990085E38A95F1F700008C2F5B
S11302D00E94990085E38A95F1F700002D9A85E341
S11302E08A95F1F700002C9A85E38A95F1F70000CE
S11302F02C9885E38A95F1F70000CF91089585E362
S11303008A95F1F7000060E787E00E949F0085E38B
S11303108A95F1F700000895813051F018F0823089
S113032081F008952C986CE180E00E949F0008956C
S113033060E787E00E949F006EE180E00E949F00DA
S113034008952D9882EE0E9499002D9A60E787E027
S11303500E949F006FE180E00E949F00089569E67B
S113036085E00E949F0082E00E940D0183E00E94CC
S1130370250161E082E00E949F0061E081E10E942A
S11303809F0060E08CE10E949F0063E083E00E9494
S11303909F0045E060E071E08AE00E94BC0045E017
S11303A065E071E080E10E94BC0061E081E00E94B0
S11303B09F0060E084E00E949F006CE180E00E9466
S11303C09F0081E00E948C012FEF81EE94E0215088
S11303D080409040E1F700C000000895ECE7F0E0B1
S11303E08081817C8083EAE7F0E08081806480837F
S11303F0808184FFFDCFEAE7F0E080818061808323
S11304008091790008952FEF89E698E1215080408A
S11304109040E1F700C000000E9486000E94750031
S11304200E9492000E94AF010E94EE010E945701B7
S10D04300E947F01F9CFF894FFCF7A
S10D043A0102030405010203040596
S9030000FC
