:100000000C9456000C9468000C9468000C946800E2
:100010000C9468000C9468000C9468000C946800C0
:100020000C9468000C9468000C9468000C946800B0
:100030000C9468000C9468000C9468000C946800A0
:100040000C9468000C9468000C9468000C94680090
:100050000C9468000C9468000C9468000C94680080
:100060000C9468000C9468000C9468000C94680070
:100070000C9468000C9468000C9468000C94680060
:100080000C9468000C9468000C9468000C94680050
:100090000C9468000C9468000C9468000C94680040
:1000A0000C9468000C9468000C94680011241FBE26
:1000B000CFEFDAE0DEBFCDBF21E0A0E0B1E001C0CC
:1000C0001D92A530B207E1F70E941E010C94D001E9
:1000D0000C94000090E080E80FB6F89480936100E3
:1000E000909361000FBE519A50983E9A3F9A85E0D6
:1000F00090E04698479A2FEF30E742E02150304099
:100100004040E1F700C00000469A47982FEF30E7E3
:1001100042E0215030404040E1F700C0000001972C
:1001200041F74698479810920301089583E390E0C1
:100130009093CD008093CC00E8ECF0E080818D7F3F
:100140008083EAECF0E0808186608083E9ECF0E077
:100150008081886180830895E8ECF0E0908195FFCC
:10016000FDCF8093CE0008951F93CF93DF93182F78
:10017000D62FC42F8CE60E947F01812F0E94B301ED
:100180008D2F0E94B3018C2F0E94B3010E94AA01FF
:10019000DF91CF911F91089544E560E08EEF0E94BA
:1001A000B400089540E060E486E00E94B400089541
:1001B00042E067E98CE00E94B4000895FF920F933B
:1001C0001F93CF93DF93F82E8B01EA018CE60E94F8
:1001D0007F018F2D0E94B3018DE60E94A7010E942E
:1001E000C501F80180830E94C50188830E94AA018D
:1001F000DF91CF911F910F91FF90089544E051E05E
:1002000061E071E082E00E94DE00809101010E94C5
:10021000AC00809104010E94AC00089542E051E0DE
:1002200060E071E084E00E94DE00809100010E94A5
:10023000AC00809102010E94AC0008950E946A0007
:100240000E9452010E949600109201011092040136
:1002500010920001109202010E94CC000E94D8006E
:100260000E94D2002FEF89E698E121508040904013
:10027000E1F700C000000E94FE002FEF84E39CE045
:10028000215080409040E1F700C000000E940E0124
:100290002FEF84E39CE0215080409040E1F700C0C4
:1002A0000000E9CF1092B90082E08093B800089571
:1002B00094EA9093BC00ECEBF0E090819923ECF78A
:1002C0009091B900987F983011F09031A1F480930B
:1002D000BB0084E88093BC00ECEBF0E080818823D5
:1002E000ECF79091B900987F983139F081E0903423
:1002F00029F480E0089581E0089580E00895CF9387
:10030000DF93ECEBF0E024EAA9EBB0E0CBEBD0E03C
:1003100034E844E9208390819923ECF79C91987FFD
:10032000983011F09031B1F7888330839081992310
:10033000ECF79C91987F903211F0983529F4408326
:10034000908194FDFDCFE6CFDF91CF9108950E947B
:100350005801089584E98093BC00ECEBF0E08081C3
:1003600084FDFDCF08958093BB0084E88093BC009A
:10037000ECEBF0E080818823ECF79091B900987F56
:1003800081E0983209F480E0089584E88093BC000D
:10039000ECEBF0E080818823ECF78091BB000895BE
:0403A000F894FFCFFF
:00000001FF
