S010000052626B796F5F52582E7372656304
S11300000C9456000C9460000C9460000C946000F6
S11300100C9460000C9460000C9460000C948801B3
S11300200C9460000C9460000C9460000C946000CC
S11300300C9460000C9460000C9460000C946000BC
S11300400C9460000C9460000C9460000C946000AC
S11300500C9460000C9460000C9460000C9460009C
S11300600C9460000C9460000C9460000C9460008C
S11300700C9460000C9460000C9460000C9460007C
S11300800C9460000C9460000C9460000C9460006C
S11300900C9460000C9460000C9460000C9460005C
S11300A00C9460000C9460000C94600011241FBE3A
S11300B0CFEFDAE0DEBFCDBF0E94B7010C94C501DB
S11300C00C940000249A209A229A219A23988CB5A1
S11300D081658CBD8CB58C7F8CBD289A2C98089535
S11300E0519A509880E190E09093CD008093CC0099
S11300F0E8ECF0E080818D7F8083EAECF0E08081A1
S113010086608083E9ECF0E08081886180830895D3
S1130110E8ECF0E0908195FFFDCF8093CE00089548
S11301208EBD0DB407FEFDCF8EB5089595E39A9567
S1130130F1F70000289895E39A95F1F700000E94E2
S1130140900085E38A95F1F700008FEF0E949000FC
S113015095E39A95F1F70000289A0895CF93C62F56
S113016095E39A95F1F70000289895E39A95F1F7AD
S11301700000805E0E94900085E38A95F1F70000FC
S11301808C2F0E94900095E39A95F1F70000289A2D
S1130190CF9108952FEF81EE94E02150804090405C
S11301A0E1F700C0000061E082E00E94AE0063E07D
S11301B083E00E94AE0069E685E00E94AE006EE036
S11301C086E00E94AE0025E32A95F1F70000289806
S11301D085E38A95F1F700008AE20E94900095E396
S11301E09A95F1F7000081E00E94900025E32A959A
S11301F0F1F7000082E00E94900085E38A95F1F710
S1130200000083E00E94900095E39A95F1F70000C6
S113021084E00E94900025E32A95F1F7000085E030
S11302200E94900085E38A95F1F70000289A95E3EF
S11302309A95F1F70000289825E32A95F1F7000034
S113024080E30E94900085E38A95F1F7000081E045
S11302500E94900095E39A95F1F7000082E00E94D5
S1130260900025E32A95F1F7000083E00E949000B6
S113027085E38A95F1F7000084E00E94900095E3FD
S11302809A95F1F7000085E00E94900025E32A95F5
S1130290F1F70000289A61E081E10E94AE006FE16D
S11302A080E00E94AE008FEF91EE24E081509040F8
S11302B02040E1F700C00000089585E38A95F1F736
S11302C00000289885E38A95F1F7000082EE0E94E9
S11302D0900085E38A95F1F70000289A85E38A95D2
S11302E0F1F70000089585E38A95F1F7000060E7CF
S11302F087E00E94AE0085E38A95F1F70000089537
S1130300EAE6F0E080818F7E8083EE9A7894089507
S11303101F920F920FB60F9211242F933F934F9376
S11303205F936F937F938F939F93AF93BF93EF9359
S1130330FF93F8942C9881E60E9496000E9488000E
S11303400E945D010E94730178942C9AFF91EF91B1
S1130350BF91AF919F918F917F916F915F914F91D9
S11303603F912F910F900FBE0F901F9018950E94F0
S113037062000E9480010E94CA000E9470000E94D4
S11103805D010E9473012C9AFFCFF894FFCF09
S9030000FC
