S0130000546573745F424E4F3035352E7372656399
S11300000C9456000C9468000C9468000C946800DE
S11300100C9468000C9468000C9468000C946800BC
S11300200C9468000C9468000C9468000C946800AC
S11300300C9468000C9468000C9468000C9468009C
S11300400C9468000C9468000C9468000C9468008C
S11300500C9468000C9468000C9468000C9468007C
S11300600C9468000C9468000C9468000C9468006C
S11300700C9468000C9468000C9468000C9468005C
S11300800C9468000C9468000C9468000C9468004C
S11300900C9468000C9468000C9468000C9468003C
S11300A00C9468000C9468000C94680011241FBE22
S11300B0CFEFDAE0DEBFCDBF21E0A0E0B1E001C0C8
S11300C01D92A130B207E1F70E94E2000C94FD00FA
S11300D00C9400002FEF8EE994E221508040904070
S11300E0E1F700C00000519A509810920001089561
S11300F01092B9008CE08093B800089587E690E0F0
S11301009093CD008093CC00E8ECF0E080818D7F6B
S11301108083EAECF0E0808186608083E9ECF0E0A3
S11301208081886180830895E8ECF0E0908195FFF8
S1130130FDCF8093CE000895CF93C82F84EA809397
S1130140BC00ECEBF0E080818823ECF783E00E94B4
S11301509400C093BB0084E88093BC00ECEBF0E017
S113016080818823ECF7CF9108958093BB0084E8C5
S11301708093BC00ECEBF0E080818823ECF70895D9
S113018084E88093BC00ECEBF0E080818823ECF7FA
S11301908091BB000895CF93DF93C82FD62F0E9480
S11301A09C008D2F0E94B50081E08C0F0E949C0062
S11301B00E94C0008093000184E98093BC00DF9119
S11301C0CF9108950E946A000E947E000E947800E8
S11301D060E088E20E94CB00809100010E949400BC
S11301E081E00E9494002FEF83ED90E32150804042
S11101F09040E1F700C00000EBCFF894FFCF81
S9030000FC
