S0120000546573745F626C696E6B2E7372656303
S11300000C9456000C9460000C9460000C946000F6
S11300100C9460000C9460000C9460000C946000DC
S11300200C9460000C9460000C9460000C946000CC
S11300300C9460000C9460000C9460000C946000BC
S11300400C9460000C9460000C9460000C946000AC
S11300500C9460000C9460000C9460000C9460009C
S11300600C9460000C9460000C9460000C9460008C
S11300700C9460000C9460000C9460000C9460007C
S11300800C9460000C9460000C9460000C9460006C
S11300900C9460000C9460000C9460000C9460005C
S11300A00C9460000C9460000C94600011241FBE3A
S11300B0CFEFDAE0DEBFCDBF0E9462000C947B007C
S11300C00C9400003E9A3F9A4698479A2FE986E896
S11300D091E0215080409040E1F700C00000469A32
S11300E047982FE986E891E0215080409040E1F75D
S10D00F000C00000E9CFF894FFCF30
S9030000FC
